:020000040800F2
:1000000000500020810200080B03000811030008C3
:10001000170300081D030008230300080000000068
:10002000000000000000000000000000290300089C
:100030002F03000800000000350300083B03000800
:1000400047030008530300085F0300086B03000820
:1000500077030008830300088F0300089B03000850
:10006000A7030008B3030008BF030008CB03000880
:10007000D7030008E3030008EF030008FB030008B0
:1000800007040008130400081F0400082B040008DC
:1000900037040008430400084F0400085B0400080C
:1000A00067040008730400087F0400088B0400083C
:1000B00097040008A3040008AF040008BB0400086C
:1000C000C7040008D3040008DF040008EB0400089C
:1000D000F7040008030500080F0500081B050008C9
:1000E00027050008330500083F0500084B050008F8
:1000F00057050008630500086F0500087B05000828
:1001000087050008930500089F050008AB05000857
:10011000B7050008C3050008CF050008DB05000887
:10012000E7050008F3050008FF0500080B060008B6
:1001300017060008230600082F0600083B060008E3
:1001400047060008530600085F0600086B06000813
:1001500077060008830600088F0600089B06000843
:10016000A7060008B3060008BF060008CB06000873
:10017000D7060008E3060008EF060008FB060008A3
:10018000070700081307000880B400AF0D4B9B69F8
:100190000C4A43F0100393610B4B5B680A4A23F44B
:1001A00070035360084B5B68074A43F44013536085
:1001B000054BDB68044A43F40053D36000BFBD46DF
:1001C00080BC7047001002400010014080B400AFB6
:1001D000044BDB68034A43F40053D36000BFBD46C1
:1001E00080BC70470010014080B400AF044BDB6856
:1001F000034A23F40053D36000BFBD4680BC704760
:100200000010014080B500AF00F003F8002318464D
:1002100080BD80B500AF00F027F8FFF7B5FFFFF70E
:10022000E3FF0121012000F00BF80121012000F083
:1002300007F80121012000F003F800BF80BD000095
:1002400080B483B000AF786039607A683B689A42C6
:1002500002D0044B01221A6000BF0C37BD4680BC9F
:10026000704700BF0000002080B400AF034B0022A5
:100270001A6000BFBD4680BC704700BF0000002070
:1002800080B586B000AF1A4A1A4BD31A7B60194B5F
:100290007B61194B3B610023FB600AE03A69531C08
:1002A0003B617B69591C796112781A70FB680133D4
:1002B000FB60FA687B689A42F0D3104A104BD31A5D
:1002C0007B600F4B7B610023BB6007E07B695A1C9E
:1002D0007A6100221A70BB680133BB60BA687B6820
:1002E0009A42F3D3FFF78EFF00BF1837BD4680BD9B
:1002F0000400002004000020200700080400002063
:100300000400002080B400AFFEE780B400AFFEE739
:1003100080B400AFFEE780B400AFFEE780B400AF6A
:10032000FEE780B400AFFEE780B400AFFEE780B424
:1003300000AFFEE780B400AFFEE780B400AF00BFBF
:10034000BD4680BC704780B400AF00BFBD4680BCD6
:10035000704780B400AF00BFBD4680BC704780B41A
:1003600000AF00BFBD4680BC704780B400AF00BF87
:10037000BD4680BC704780B400AF00BFBD4680BCA6
:10038000704780B400AF00BFBD4680BC704780B4EA
:1003900000AF00BFBD4680BC704780B400AF00BF57
:1003A000BD4680BC704780B400AF00BFBD4680BC76
:1003B000704780B400AF00BFBD4680BC704780B4BA
:1003C00000AF00BFBD4680BC704780B400AF00BF27
:1003D000BD4680BC704780B400AF00BFBD4680BC46
:1003E000704780B400AF00BFBD4680BC704780B48A
:1003F00000AF00BFBD4680BC704780B400AF00BFF7
:10040000BD4680BC704780B400AF00BFBD4680BC15
:10041000704780B400AF00BFBD4680BC704780B459
:1004200000AF00BFBD4680BC704780B400AF00BFC6
:10043000BD4680BC704780B400AF00BFBD4680BCE5
:10044000704780B400AF00BFBD4680BC704780B429
:1004500000AF00BFBD4680BC704780B400AF00BF96
:10046000BD4680BC704780B400AF00BFBD4680BCB5
:10047000704780B400AF00BFBD4680BC704780B4F9
:1004800000AF00BFBD4680BC704780B400AF00BF66
:10049000BD4680BC704780B400AF00BFBD4680BC85
:1004A000704780B400AF00BFBD4680BC704780B4C9
:1004B00000AF00BFBD4680BC704780B400AF00BF36
:1004C000BD4680BC704780B400AF00BFBD4680BC55
:1004D000704780B400AF00BFBD4680BC704780B499
:1004E00000AF00BFBD4680BC704780B400AF00BF06
:1004F000BD4680BC704780B400AF00BFBD4680BC25
:10050000704780B400AF00BFBD4680BC704780B468
:1005100000AF00BFBD4680BC704780B400AF00BFD5
:10052000BD4680BC704780B400AF00BFBD4680BCF4
:10053000704780B400AF00BFBD4680BC704780B438
:1005400000AF00BFBD4680BC704780B400AF00BFA5
:10055000BD4680BC704780B400AF00BFBD4680BCC4
:10056000704780B400AF00BFBD4680BC704780B408
:1005700000AF00BFBD4680BC704780B400AF00BF75
:10058000BD4680BC704780B400AF00BFBD4680BC94
:10059000704780B400AF00BFBD4680BC704780B4D8
:1005A00000AF00BFBD4680BC704780B400AF00BF45
:1005B000BD4680BC704780B400AF00BFBD4680BC64
:1005C000704780B400AF00BFBD4680BC704780B4A8
:1005D00000AF00BFBD4680BC704780B400AF00BF15
:1005E000BD4680BC704780B400AF00BFBD4680BC34
:1005F000704780B400AF00BFBD4680BC704780B478
:1006000000AF00BFBD4680BC704780B400AF00BFE4
:10061000BD4680BC704780B400AF00BFBD4680BC03
:10062000704780B400AF00BFBD4680BC704780B447
:1006300000AF00BFBD4680BC704780B400AF00BFB4
:10064000BD4680BC704780B400AF00BFBD4680BCD3
:10065000704780B400AF00BFBD4680BC704780B417
:1006600000AF00BFBD4680BC704780B400AF00BF84
:10067000BD4680BC704780B400AF00BFBD4680BCA3
:10068000704780B400AF00BFBD4680BC704780B4E7
:1006900000AF00BFBD4680BC704780B400AF00BF54
:1006A000BD4680BC704780B400AF00BFBD4680BC73
:1006B000704780B400AF00BFBD4680BC704780B4B7
:1006C00000AF00BFBD4680BC704780B400AF00BF24
:1006D000BD4680BC704780B400AF00BFBD4680BC43
:1006E000704780B400AF00BFBD4680BC704780B487
:1006F00000AF00BFBD4680BC704780B400AF00BFF4
:10070000BD4680BC704780B400AF00BFBD4680BC12
:10071000704780B400AF00BFBD4680BC704700BFCB
:020000042000DA
:0400000000000000FC
:04000005080002816C
:00000001FF
