:020000040800F2
:1000000000500020850300080F04000815040008B4
:100010001B04000821040008270400080000000059
:100020000000000000000000000000002D04000897
:100030003304000800000000390400083F040008F1
:100040004B04000857040008630400086F0400080C
:100050007B0400088704000893040008D904000802
:10006000E5040008F1040008FD0400080905000883
:1000700015050008210500082D05000839050008B0
:1000800045050008510500085D05000869050008E0
:1000900075050008810500088D0500089905000810
:1000A000A5050008B1050008BD050008C905000840
:1000B000D5050008E1050008ED050008F905000870
:1000C00005060008110600081D060008290600089C
:1000D00035060008410600084D06000859060008CC
:1000E00065060008710600087D06000889060008FC
:1000F00095060008A1060008AD060008B90600082C
:10010000C5060008D1060008DD060008E90600085B
:10011000F5060008010700080D0700081907000888
:1001200025070008310700083D07000849070008B7
:1001300055070008610700086D07000879070008E7
:1001400085070008910700089D070008A907000817
:10015000B5070008C1070008CD070008D907000847
:10016000E5070008F1070008FD0700080908000876
:1001700015080008210800082D08000839080008A3
:10018000450800085108000880B400AF0D4B9B697A
:100190000C4A43F0100393610B4B5B680A4A23F44B
:1001A00070035360084B5B68074A43F44013536085
:1001B000054B1B69044A43F40053136100BFBD465D
:1001C00080BC7047001002400010014080B400AFB6
:1001D0000D4B9B690C4A43F0040393610B4B1B6866
:1001E0000A4A23F00F031360084B1B68074A43F0C9
:1001F00008031360054B1B69044A43F001031361B4
:1002000000BFBD4680BC704700100240000801409E
:1002100080B400AF044B1B69034A43F400531361DD
:1002200000BFBD4680BC70470010014080B400AFE5
:10023000044B5B69034A43F40053536100BFBD465E
:1002400080BC70470010014080B400AF044BDB68F5
:10025000034A83F40053D36000BFBD4680BC70479F
:100260000010014080B400AF064B9B6803F001030F
:10027000002B01D1002300E001231846BD4680BCBD
:10028000704700BF0008014080B400AF1E4B5B699F
:100290001D4A43F0010353611C4B9B691B4A43F009
:1002A000010393611A4B9B68194A23F00F03936073
:1002B000154B9B68144A23F001039360124BDB68D3
:1002C000114A43F00103D3600F4B1B690E4A23F020
:1002D000010313610C4B5B680B4A23F0010353606D
:1002E000094B1B68084A43F001031360094B0022C5
:1002F00083F80023074B1B68064A43F04003136052
:1003000000BFBD4680BC70470004014000100240A1
:100310000000014000E100E080B500AF00F003F80C
:100320000023184680BD80B500AF00F01FF8FFF72E
:100330002BFFFFF77BFF0121012000F003F800BF36
:1003400080BD000080B483B000AF786039607A6807
:100350003B689A4202D0044B01221A6000BF0C375E
:10036000BD4680BC704700BF0000002080B400AFD5
:10037000034B00221A6000BFBD4680BC704700BF1F
:100380000000002080B586B000AF1A4A1A4BD31A7D
:100390007B60194B7B61194B3B610023FB600AE0DA
:1003A0003A69531C3B617B69591C796112781A7058
:1003B000FB680133FB60FA687B689A42F0D3104A0D
:1003C000104BD31A7B600F4B7B610023BB6007E0AF
:1003D0007B695A1C7A6100221A70BB680133BB60CA
:1003E000BA687B689A42F3D3FFF796FF00BF1837CD
:1003F000BD4680BD0400002004000020AC0A0008B7
:10040000040000200400002080B400AFFEE780B4A8
:1004100000AFFEE780B400AFFEE780B400AFFEE7B8
:1004200080B400AFFEE780B400AFFEE780B400AF59
:10043000FEE780B400AFFEE780B400AFFEE780B413
:1004400000AF00BFBD4680BC704780B400AF00BFA6
:10045000BD4680BC704780B400AF00BFBD4680BCC5
:10046000704780B400AF00BFBD4680BC704780B409
:1004700000AF00BFBD4680BC704780B400AF00BF76
:10048000BD4680BC704780B400AF00BFBD4680BC95
:10049000704780B400AF0E4B5B6903F00103012B82
:1004A00011D10B4B1B6803F00103012B0BD1094B3E
:1004B0001B69084A43F400531361054B5B69044A06
:1004C00043F00103536100BFBD4680BC704700BFCD
:1004D000000401400010014080B400AF00BFBD46E1
:1004E00080BC704780B400AF00BFBD4680BC704781
:1004F00080B400AF00BFBD4680BC704780B400AF81
:1005000000BFBD4680BC704780B400AF00BFBD4691
:1005100080BC704780B400AF00BFBD4680BC704750
:1005200080B400AF00BFBD4680BC704780B400AF50
:1005300000BFBD4680BC704780B400AF00BFBD4661
:1005400080BC704780B400AF00BFBD4680BC704720
:1005500080B400AF00BFBD4680BC704780B400AF20
:1005600000BFBD4680BC704780B400AF00BFBD4631
:1005700080BC704780B400AF00BFBD4680BC7047F0
:1005800080B400AF00BFBD4680BC704780B400AFF0
:1005900000BFBD4680BC704780B400AF00BFBD4601
:1005A00080BC704780B400AF00BFBD4680BC7047C0
:1005B00080B400AF00BFBD4680BC704780B400AFC0
:1005C00000BFBD4680BC704780B400AF00BFBD46D1
:1005D00080BC704780B400AF00BFBD4680BC704790
:1005E00080B400AF00BFBD4680BC704780B400AF90
:1005F00000BFBD4680BC704780B400AF00BFBD46A1
:1006000080BC704780B400AF00BFBD4680BC70475F
:1006100080B400AF00BFBD4680BC704780B400AF5F
:1006200000BFBD4680BC704780B400AF00BFBD4670
:1006300080BC704780B400AF00BFBD4680BC70472F
:1006400080B400AF00BFBD4680BC704780B400AF2F
:1006500000BFBD4680BC704780B400AF00BFBD4640
:1006600080BC704780B400AF00BFBD4680BC7047FF
:1006700080B400AF00BFBD4680BC704780B400AFFF
:1006800000BFBD4680BC704780B400AF00BFBD4610
:1006900080BC704780B400AF00BFBD4680BC7047CF
:1006A00080B400AF00BFBD4680BC704780B400AFCF
:1006B00000BFBD4680BC704780B400AF00BFBD46E0
:1006C00080BC704780B400AF00BFBD4680BC70479F
:1006D00080B400AF00BFBD4680BC704780B400AF9F
:1006E00000BFBD4680BC704780B400AF00BFBD46B0
:1006F00080BC704780B400AF00BFBD4680BC70476F
:1007000080B400AF00BFBD4680BC704780B400AF6E
:1007100000BFBD4680BC704780B400AF00BFBD467F
:1007200080BC704780B400AF00BFBD4680BC70473E
:1007300080B400AF00BFBD4680BC704780B400AF3E
:1007400000BFBD4680BC704780B400AF00BFBD464F
:1007500080BC704780B400AF00BFBD4680BC70470E
:1007600080B400AF00BFBD4680BC704780B400AF0E
:1007700000BFBD4680BC704780B400AF00BFBD461F
:1007800080BC704780B400AF00BFBD4680BC7047DE
:1007900080B400AF00BFBD4680BC704780B400AFDE
:1007A00000BFBD4680BC704780B400AF00BFBD46EF
:1007B00080BC704780B400AF00BFBD4680BC7047AE
:1007C00080B400AF00BFBD4680BC704780B400AFAE
:1007D00000BFBD4680BC704780B400AF00BFBD46BF
:1007E00080BC704780B400AF00BFBD4680BC70477E
:1007F00080B400AF00BFBD4680BC704780B400AF7E
:1008000000BFBD4680BC704780B400AF00BFBD468E
:1008100080BC704780B400AF00BFBD4680BC70474D
:1008200080B400AF00BFBD4680BC704780B400AF4D
:1008300000BFBD4680BC704780B400AF00BFBD465E
:1008400080BC704780B400AF00BFBD4680BC70471D
:1008500080B400AF00BFBD4680BC7047EFF3098392
:10086000184670471C4623461846034683F30988FA
:10087000704700BFEFF30883184670471C462346B5
:100880001846034683F30888704700BF80B483B0DE
:1008900000AF00237B60EFF312837B607B68184618
:1008A0000C37BD4680BC704780B483B000AF786021
:1008B0007B6883F3118800BF0C37BD4680BC70474E
:1008C00080B483B000AF00237B60EFF310837B60C4
:1008D0007B6818460C37BD4680BC704780B483B037
:1008E00000AF78607B6883F3108800BF0C37BD468B
:1008F00080BC704780B483B000AF00237B60EFF30F
:1009000013837B607B6818460C37BD4680BC7047FC
:1009100080B483B000AF78607B6883F3138800BF36
:100920000C37BD4680BC704780B483B000AF002355
:100930007B60EFF314837B607B6818460C37BD4601
:1009400080BC704780B483B000AF78607B6883F36D
:10095000148800BF0C37BD4680BC704780B485B09A
:1009600000AF78600023FB607B681BBAFB60FB680C
:1009700018461437BD4680BC704780B485B000AFC0
:100980000346FB800023FB60FB885BBAFB60FB68CF
:1009900018461437BD4680BC704780B485B000AFA0
:1009A0000346FB800023FB60FB88DBBAFB60FB682F
:1009B00018461437BD4680BC704780B485B000AF80
:1009C00078600023FB607B6893FAA3F3FB60FB680D
:1009D00018461437BD4680BC704780B485B000AF60
:1009E00078600023FB737B68D3E84F3FFB73FB7B8E
:1009F00018461437BD4680BC704780B485B000AF40
:100A000078600023FB817B68D3E85F3FFB81FB8933
:100A100018461437BD4680BC704780B485B000AF1F
:100A200078600023FB607B6853E8003FFB60FB6855
:100A300018461437BD4680BC704780B485B000AFFF
:100A400003463960FB710023FB603A68F979C2E81C
:100A5000431FFB60FB6818461437BD4680BC7047D7
:100A600080B485B000AF03463960FB800023FB6093
:100A70003A68F988C2E8531FFB60FB6818461437D0
:100A8000BD4680BC704780B485B000AF78603960E7
:100A90000023FB603B687A6843E80023FB60FB6847
:0C0AA00018461437BD4680BC70470000AB
:020000042000DA
:0400000000000000FC
:040000050800038567
:00000001FF
