:020000040800F2
:100000000050002065020008EF020008F502000819
:10001000FB020008010300080703000800000000BD
:100020000000000000000000000000000D030008B8
:100030001303000800000000190300081F03000854
:100040002B03000837030008430300084F03000890
:100050005B03000867030008730300087F030008C0
:100060008B03000897030008A3030008AF030008F0
:10007000BB030008C7030008D3030008DF03000820
:10008000EB030008F7030008030400080F0400084E
:100090001B04000827040008330400083F0400087C
:1000A0004B04000857040008630400086F040008AC
:1000B0007B04000887040008930400089F040008DC
:1000C000AB040008B7040008C3040008CF0400080C
:1000D000DB040008E7040008F3040008FF0400083C
:1000E0000B05000817050008230500082F05000868
:1000F0003B05000847050008530500085F05000898
:100100006B05000877050008830500088F050008C7
:100110009B050008A7050008B3050008BF050008F7
:10012000CB050008D7050008E3050008EF05000827
:10013000FB05000807060008130600081F06000854
:100140002B06000837060008430600084F06000883
:100150005B06000867060008730600087F060008B3
:100160008B06000897060008A3060008AF060008E3
:10017000BB060008C7060008D3060008DF06000813
:10018000EB060008F706000880B400AF0D4B9B6932
:100190000C4A43F0100393610B4B5B680A4A23F44B
:1001A00070035360084B5B68074A43F44013536085
:1001B000054B1B69044A43F40053136100BFBD465D
:1001C00080BC7047001002400010014080B400AFB6
:1001D000044B1B69034A43F40053136100BFBD463F
:1001E00080BC70470010014080B400AF044B5B69D5
:1001F000034A43F40053536100BFBD4680BC7047BF
:100200000010014080B500AF00F003F8002318464D
:1002100080BD80B500AFFFF7B7FFFFF7D7FF00BF86
:1002200080BD000080B483B000AF786039607A6828
:100230003B689A4202D0044B01221A6000BF0C377F
:10024000BD4680BC704700BF0000002080B400AFF6
:10025000034B00221A6000BFBD4680BC704700BF40
:100260000000002080B586B000AF1A4A1A4BD31A9E
:100270007B60194B7B61194B3B610023FB600AE0FB
:100280003A69531C3B617B69591C796112781A7079
:10029000FB680133FB60FA687B689A42F0D3104A2E
:1002A000104BD31A7B600F4B7B610023BB6007E0D0
:1002B0007B695A1C7A6100221A70BB680133BB60EB
:1002C000BA687B689A42F3D3FFF79CFF00BF1837E8
:1002D000BD4680BD04000020040000200407000883
:1002E000040000200400002080B400AFFEE780B4CA
:1002F00000AFFEE780B400AFFEE780B400AFFEE7DA
:1003000080B400AFFEE780B400AFFEE780B400AF7A
:10031000FEE780B400AFFEE780B400AFFEE780B434
:1003200000AF00BFBD4680BC704780B400AF00BFC7
:10033000BD4680BC704780B400AF00BFBD4680BCE6
:10034000704780B400AF00BFBD4680BC704780B42A
:1003500000AF00BFBD4680BC704780B400AF00BF97
:10036000BD4680BC704780B400AF00BFBD4680BCB6
:10037000704780B400AF00BFBD4680BC704780B4FA
:1003800000AF00BFBD4680BC704780B400AF00BF67
:10039000BD4680BC704780B400AF00BFBD4680BC86
:1003A000704780B400AF00BFBD4680BC704780B4CA
:1003B00000AF00BFBD4680BC704780B400AF00BF37
:1003C000BD4680BC704780B400AF00BFBD4680BC56
:1003D000704780B400AF00BFBD4680BC704780B49A
:1003E00000AF00BFBD4680BC704780B400AF00BF07
:1003F000BD4680BC704780B400AF00BFBD4680BC26
:10040000704780B400AF00BFBD4680BC704780B469
:1004100000AF00BFBD4680BC704780B400AF00BFD6
:10042000BD4680BC704780B400AF00BFBD4680BCF5
:10043000704780B400AF00BFBD4680BC704780B439
:1004400000AF00BFBD4680BC704780B400AF00BFA6
:10045000BD4680BC704780B400AF00BFBD4680BCC5
:10046000704780B400AF00BFBD4680BC704780B409
:1004700000AF00BFBD4680BC704780B400AF00BF76
:10048000BD4680BC704780B400AF00BFBD4680BC95
:10049000704780B400AF00BFBD4680BC704780B4D9
:1004A00000AF00BFBD4680BC704780B400AF00BF46
:1004B000BD4680BC704780B400AF00BFBD4680BC65
:1004C000704780B400AF00BFBD4680BC704780B4A9
:1004D00000AF00BFBD4680BC704780B400AF00BF16
:1004E000BD4680BC704780B400AF00BFBD4680BC35
:1004F000704780B400AF00BFBD4680BC704780B479
:1005000000AF00BFBD4680BC704780B400AF00BFE5
:10051000BD4680BC704780B400AF00BFBD4680BC04
:10052000704780B400AF00BFBD4680BC704780B448
:1005300000AF00BFBD4680BC704780B400AF00BFB5
:10054000BD4680BC704780B400AF00BFBD4680BCD4
:10055000704780B400AF00BFBD4680BC704780B418
:1005600000AF00BFBD4680BC704780B400AF00BF85
:10057000BD4680BC704780B400AF00BFBD4680BCA4
:10058000704780B400AF00BFBD4680BC704780B4E8
:1005900000AF00BFBD4680BC704780B400AF00BF55
:1005A000BD4680BC704780B400AF00BFBD4680BC74
:1005B000704780B400AF00BFBD4680BC704780B4B8
:1005C00000AF00BFBD4680BC704780B400AF00BF25
:1005D000BD4680BC704780B400AF00BFBD4680BC44
:1005E000704780B400AF00BFBD4680BC704780B488
:1005F00000AF00BFBD4680BC704780B400AF00BFF5
:10060000BD4680BC704780B400AF00BFBD4680BC13
:10061000704780B400AF00BFBD4680BC704780B457
:1006200000AF00BFBD4680BC704780B400AF00BFC4
:10063000BD4680BC704780B400AF00BFBD4680BCE3
:10064000704780B400AF00BFBD4680BC704780B427
:1006500000AF00BFBD4680BC704780B400AF00BF94
:10066000BD4680BC704780B400AF00BFBD4680BCB3
:10067000704780B400AF00BFBD4680BC704780B4F7
:1006800000AF00BFBD4680BC704780B400AF00BF64
:10069000BD4680BC704780B400AF00BFBD4680BC83
:1006A000704780B400AF00BFBD4680BC704780B4C7
:1006B00000AF00BFBD4680BC704780B400AF00BF34
:1006C000BD4680BC704780B400AF00BFBD4680BC53
:1006D000704780B400AF00BFBD4680BC704780B497
:1006E00000AF00BFBD4680BC704780B400AF00BF04
:1006F000BD4680BC704780B400AF00BFBD4680BC23
:04070000704700BF7F
:020000042000DA
:0400000000000000FC
:040000050800026588
:00000001FF
